{
  "contractName": "JIDEToken",
  "abi": [
    {
      "inputs": [
        {
          "internalType": "uint256",
          "name": "initialSupply",
          "type": "uint256"
        }
      ],
      "stateMutability": "nonpayable",
      "type": "constructor"
    },
    {
      "inputs": [
        {
          "internalType": "address",
          "name": "spender",
          "type": "address"
        },
        {
          "internalType": "uint256",
          "name": "allowance",
          "type": "uint256"
        },
        {
          "internalType": "uint256",
          "name": "needed",
          "type": "uint256"
        }
      ],
      "name": "ERC20InsufficientAllowance",
      "type": "error"
    },
    {
      "inputs": [
        {
          "internalType": "address",
          "name": "sender",
          "type": "address"
        },
        {
          "internalType": "uint256",
          "name": "balance",
          "type": "uint256"
        },
        {
          "internalType": "uint256",
          "name": "needed",
          "type": "uint256"
        }
      ],
      "name": "ERC20InsufficientBalance",
      "type": "error"
    },
    {
      "inputs": [
        {
          "internalType": "address",
          "name": "approver",
          "type": "address"
        }
      ],
      "name": "ERC20InvalidApprover",
      "type": "error"
    },
    {
      "inputs": [
        {
          "internalType": "address",
          "name": "receiver",
          "type": "address"
        }
      ],
      "name": "ERC20InvalidReceiver",
      "type": "error"
    },
    {
      "inputs": [
        {
          "internalType": "address",
          "name": "sender",
          "type": "address"
        }
      ],
      "name": "ERC20InvalidSender",
      "type": "error"
    },
    {
      "inputs": [
        {
          "internalType": "address",
          "name": "spender",
          "type": "address"
        }
      ],
      "name": "ERC20InvalidSpender",
      "type": "error"
    },
    {
      "anonymous": false,
      "inputs": [
        {
          "indexed": true,
          "internalType": "address",
          "name": "owner",
          "type": "address"
        },
        {
          "indexed": true,
          "internalType": "address",
          "name": "spender",
          "type": "address"
        },
        {
          "indexed": false,
          "internalType": "uint256",
          "name": "value",
          "type": "uint256"
        }
      ],
      "name": "Approval",
      "type": "event"
    },
    {
      "anonymous": false,
      "inputs": [
        {
          "indexed": true,
          "internalType": "address",
          "name": "from",
          "type": "address"
        },
        {
          "indexed": true,
          "internalType": "address",
          "name": "to",
          "type": "address"
        },
        {
          "indexed": false,
          "internalType": "uint256",
          "name": "value",
          "type": "uint256"
        }
      ],
      "name": "Transfer",
      "type": "event"
    },
    {
      "inputs": [
        {
          "internalType": "address",
          "name": "owner",
          "type": "address"
        },
        {
          "internalType": "address",
          "name": "spender",
          "type": "address"
        }
      ],
      "name": "allowance",
      "outputs": [
        {
          "internalType": "uint256",
          "name": "",
          "type": "uint256"
        }
      ],
      "stateMutability": "view",
      "type": "function",
      "constant": true
    },
    {
      "inputs": [
        {
          "internalType": "address",
          "name": "spender",
          "type": "address"
        },
        {
          "internalType": "uint256",
          "name": "value",
          "type": "uint256"
        }
      ],
      "name": "approve",
      "outputs": [
        {
          "internalType": "bool",
          "name": "",
          "type": "bool"
        }
      ],
      "stateMutability": "nonpayable",
      "type": "function"
    },
    {
      "inputs": [
        {
          "internalType": "address",
          "name": "account",
          "type": "address"
        }
      ],
      "name": "balanceOf",
      "outputs": [
        {
          "internalType": "uint256",
          "name": "",
          "type": "uint256"
        }
      ],
      "stateMutability": "view",
      "type": "function",
      "constant": true
    },
    {
      "inputs": [],
      "name": "decimals",
      "outputs": [
        {
          "internalType": "uint8",
          "name": "",
          "type": "uint8"
        }
      ],
      "stateMutability": "view",
      "type": "function",
      "constant": true
    },
    {
      "inputs": [],
      "name": "name",
      "outputs": [
        {
          "internalType": "string",
          "name": "",
          "type": "string"
        }
      ],
      "stateMutability": "view",
      "type": "function",
      "constant": true
    },
    {
      "inputs": [],
      "name": "owner",
      "outputs": [
        {
          "internalType": "address",
          "name": "",
          "type": "address"
        }
      ],
      "stateMutability": "view",
      "type": "function",
      "constant": true
    },
    {
      "inputs": [],
      "name": "symbol",
      "outputs": [
        {
          "internalType": "string",
          "name": "",
          "type": "string"
        }
      ],
      "stateMutability": "view",
      "type": "function",
      "constant": true
    },
    {
      "inputs": [],
      "name": "toeken_symbol",
      "outputs": [
        {
          "internalType": "string",
          "name": "",
          "type": "string"
        }
      ],
      "stateMutability": "view",
      "type": "function",
      "constant": true
    },
    {
      "inputs": [],
      "name": "token_name",
      "outputs": [
        {
          "internalType": "string",
          "name": "",
          "type": "string"
        }
      ],
      "stateMutability": "view",
      "type": "function",
      "constant": true
    },
    {
      "inputs": [],
      "name": "totalSupply",
      "outputs": [
        {
          "internalType": "uint256",
          "name": "",
          "type": "uint256"
        }
      ],
      "stateMutability": "view",
      "type": "function",
      "constant": true
    },
    {
      "inputs": [
        {
          "internalType": "address",
          "name": "to",
          "type": "address"
        },
        {
          "internalType": "uint256",
          "name": "value",
          "type": "uint256"
        }
      ],
      "name": "transfer",
      "outputs": [
        {
          "internalType": "bool",
          "name": "",
          "type": "bool"
        }
      ],
      "stateMutability": "nonpayable",
      "type": "function"
    },
    {
      "inputs": [
        {
          "internalType": "address",
          "name": "from",
          "type": "address"
        },
        {
          "internalType": "address",
          "name": "to",
          "type": "address"
        },
        {
          "internalType": "uint256",
          "name": "value",
          "type": "uint256"
        }
      ],
      "name": "transferFrom",
      "outputs": [
        {
          "internalType": "bool",
          "name": "",
          "type": "bool"
        }
      ],
      "stateMutability": "nonpayable",
      "type": "function"
    },
    {
      "inputs": [
        {
          "internalType": "address",
          "name": "to",
          "type": "address"
        },
        {
          "internalType": "uint256",
          "name": "amount",
          "type": "uint256"
        }
      ],
      "name": "mint",
      "outputs": [],
      "stateMutability": "nonpayable",
      "type": "function"
    },
    {
      "inputs": [
        {
          "internalType": "uint256",
          "name": "amount",
          "type": "uint256"
        }
      ],
      "name": "burn",
      "outputs": [],
      "stateMutability": "nonpayable",
      "type": "function"
    }
  ],
  "bytecode": "0x608060405234801562000010575f80fd5b5060405162001a6a38038062001a6a83398181016040528101906200003691906200040b565b6040518060400160405280601381526020017f4a69646520457468657265756d20546f6b656e000000000000000000000000008152506040518060400160405280600381526020017f4a455400000000000000000000000000000000000000000000000000000000008152508160039081620000b3919062000696565b508060049081620000c5919062000696565b5050503360055f6101000a81548173ffffffffffffffffffffffffffffffffffffffff021916908373ffffffffffffffffffffffffffffffffffffffff1602179055506200011a33826200012160201b60201c565b50620008a6565b5f73ffffffffffffffffffffffffffffffffffffffff168273ffffffffffffffffffffffffffffffffffffffff160362000194575f6040517fec442f050000000000000000000000000000000000000000000000000000000081526004016200018b9190620007bd565b60405180910390fd5b620001a75f8383620001ab60201b60201c565b5050565b5f73ffffffffffffffffffffffffffffffffffffffff168373ffffffffffffffffffffffffffffffffffffffff1603620001ff578060025f828254620001f2919062000805565b92505081905550620002d0565b5f805f8573ffffffffffffffffffffffffffffffffffffffff1673ffffffffffffffffffffffffffffffffffffffff1681526020019081526020015f20549050818110156200028b578381836040517fe450d38c000000000000000000000000000000000000000000000000000000008152600401620002829392919062000850565b60405180910390fd5b8181035f808673ffffffffffffffffffffffffffffffffffffffff1673ffffffffffffffffffffffffffffffffffffffff1681526020019081526020015f2081905550505b5f73ffffffffffffffffffffffffffffffffffffffff168273ffffffffffffffffffffffffffffffffffffffff160362000319578060025f828254039250508190555062000363565b805f808473ffffffffffffffffffffffffffffffffffffffff1673ffffffffffffffffffffffffffffffffffffffff1681526020019081526020015f205f82825401925050819055505b8173ffffffffffffffffffffffffffffffffffffffff168373ffffffffffffffffffffffffffffffffffffffff167fddf252ad1be2c89b69c2b068fc378daa952ba7f163c4a11628f55a4df523b3ef83604051620003c291906200088b565b60405180910390a3505050565b5f80fd5b5f819050919050565b620003e781620003d3565b8114620003f2575f80fd5b50565b5f815190506200040581620003dc565b92915050565b5f60208284031215620004235762000422620003cf565b5b5f6200043284828501620003f5565b91505092915050565b5f81519050919050565b7f4e487b71000000000000000000000000000000000000000000000000000000005f52604160045260245ffd5b7f4e487b71000000000000000000000000000000000000000000000000000000005f52602260045260245ffd5b5f6002820490506001821680620004b757607f821691505b602082108103620004cd57620004cc62000472565b5b50919050565b5f819050815f5260205f209050919050565b5f6020601f8301049050919050565b5f82821b905092915050565b5f60088302620005317fffffffffffffffffffffffffffffffffffffffffffffffffffffffffffffffff82620004f4565b6200053d8683620004f4565b95508019841693508086168417925050509392505050565b5f819050919050565b5f6200057e620005786200057284620003d3565b62000555565b620003d3565b9050919050565b5f819050919050565b62000599836200055e565b620005b1620005a88262000585565b84845462000500565b825550505050565b5f90565b620005c7620005b9565b620005d48184846200058e565b505050565b5b81811015620005fb57620005ef5f82620005bd565b600181019050620005da565b5050565b601f8211156200064a576200061481620004d3565b6200061f84620004e5565b810160208510156200062f578190505b620006476200063e85620004e5565b830182620005d9565b50505b505050565b5f82821c905092915050565b5f6200066c5f19846008026200064f565b1980831691505092915050565b5f6200068683836200065b565b9150826002028217905092915050565b620006a1826200043b565b67ffffffffffffffff811115620006bd57620006bc62000445565b5b620006c982546200049f565b620006d6828285620005ff565b5f60209050601f8311600181146200070c575f8415620006f7578287015190505b62000703858262000679565b86555062000772565b601f1984166200071c86620004d3565b5f5b8281101562000745578489015182556001820191506020850194506020810190506200071e565b8683101562000765578489015162000761601f8916826200065b565b8355505b6001600288020188555050505b505050505050565b5f73ffffffffffffffffffffffffffffffffffffffff82169050919050565b5f620007a5826200077a565b9050919050565b620007b78162000799565b82525050565b5f602082019050620007d25f830184620007ac565b92915050565b7f4e487b71000000000000000000000000000000000000000000000000000000005f52601160045260245ffd5b5f6200081182620003d3565b91506200081e83620003d3565b9250828201905080821115620008395762000838620007d8565b5b92915050565b6200084a81620003d3565b82525050565b5f606082019050620008655f830186620007ac565b6200087460208301856200083f565b6200088360408301846200083f565b949350505050565b5f602082019050620008a05f8301846200083f565b92915050565b6111b680620008b45f395ff3fe608060405234801561000f575f80fd5b50600436106100e8575f3560e01c806370a082311161008a57806395d89b411161006457806395d89b411461024a578063a9059cbb14610268578063c740212a14610298578063dd62ed3e146102b6576100e8565b806370a08231146101de5780638da5cb5b1461020e578063947a31681461022c576100e8565b806323b872dd116100c657806323b872dd14610158578063313ce5671461018857806340c10f19146101a657806342966c68146101c2576100e8565b806306fdde03146100ec578063095ea7b31461010a57806318160ddd1461013a575b5f80fd5b6100f46102e6565b6040516101019190610d9c565b60405180910390f35b610124600480360381019061011f9190610e4d565b610376565b6040516101319190610ea5565b60405180910390f35b610142610398565b60405161014f9190610ecd565b60405180910390f35b610172600480360381019061016d9190610ee6565b6103a1565b60405161017f9190610ea5565b60405180910390f35b6101906103cf565b60405161019d9190610f51565b60405180910390f35b6101c060048036038101906101bb9190610e4d565b6103d7565b005b6101dc60048036038101906101d79190610f6a565b610474565b005b6101f860048036038101906101f39190610f95565b610481565b6040516102059190610ecd565b60405180910390f35b6102166104c6565b6040516102239190610fcf565b60405180910390f35b6102346104eb565b6040516102419190610d9c565b60405180910390f35b610252610524565b60405161025f9190610d9c565b60405180910390f35b610282600480360381019061027d9190610e4d565b6105b4565b60405161028f9190610ea5565b60405180910390f35b6102a06105d6565b6040516102ad9190610d9c565b60405180910390f35b6102d060048036038101906102cb9190610fe8565b61060f565b6040516102dd9190610ecd565b60405180910390f35b6060600380546102f590611053565b80601f016020809104026020016040519081016040528092919081815260200182805461032190611053565b801561036c5780601f106103435761010080835404028352916020019161036c565b820191905f5260205f20905b81548152906001019060200180831161034f57829003601f168201915b5050505050905090565b5f80610380610691565b905061038d818585610698565b600191505092915050565b5f600254905090565b5f806103ab610691565b90506103b88582856106aa565b6103c385858561073c565b60019150509392505050565b5f6012905090565b60055f9054906101000a900473ffffffffffffffffffffffffffffffffffffffff1673ffffffffffffffffffffffffffffffffffffffff163373ffffffffffffffffffffffffffffffffffffffff1614610466576040517f08c379a000000000000000000000000000000000000000000000000000000000815260040161045d906110cd565b60405180910390fd5b610470828261082c565b5050565b61047e33826108ab565b50565b5f805f8373ffffffffffffffffffffffffffffffffffffffff1673ffffffffffffffffffffffffffffffffffffffff1681526020019081526020015f20549050919050565b60055f9054906101000a900473ffffffffffffffffffffffffffffffffffffffff1681565b6040518060400160405280601381526020017f4a69646520457468657265756d20546f6b656e0000000000000000000000000081525081565b60606004805461053390611053565b80601f016020809104026020016040519081016040528092919081815260200182805461055f90611053565b80156105aa5780601f10610581576101008083540402835291602001916105aa565b820191905f5260205f20905b81548152906001019060200180831161058d57829003601f168201915b5050505050905090565b5f806105be610691565b90506105cb81858561073c565b600191505092915050565b6040518060400160405280600381526020017f4a4554000000000000000000000000000000000000000000000000000000000081525081565b5f60015f8473ffffffffffffffffffffffffffffffffffffffff1673ffffffffffffffffffffffffffffffffffffffff1681526020019081526020015f205f8373ffffffffffffffffffffffffffffffffffffffff1673ffffffffffffffffffffffffffffffffffffffff1681526020019081526020015f2054905092915050565b5f33905090565b6106a5838383600161092a565b505050565b5f6106b5848461060f565b90507fffffffffffffffffffffffffffffffffffffffffffffffffffffffffffffffff81146107365781811015610727578281836040517ffb8f41b200000000000000000000000000000000000000000000000000000000815260040161071e939291906110eb565b60405180910390fd5b61073584848484035f61092a565b5b50505050565b5f73ffffffffffffffffffffffffffffffffffffffff168373ffffffffffffffffffffffffffffffffffffffff16036107ac575f6040517f96c6fd1e0000000000000000000000000000000000000000000000000000000081526004016107a39190610fcf565b60405180910390fd5b5f73ffffffffffffffffffffffffffffffffffffffff168273ffffffffffffffffffffffffffffffffffffffff160361081c575f6040517fec442f050000000000000000000000000000000000000000000000000000000081526004016108139190610fcf565b60405180910390fd5b610827838383610af9565b505050565b5f73ffffffffffffffffffffffffffffffffffffffff168273ffffffffffffffffffffffffffffffffffffffff160361089c575f6040517fec442f050000000000000000000000000000000000000000000000000000000081526004016108939190610fcf565b60405180910390fd5b6108a75f8383610af9565b5050565b5f73ffffffffffffffffffffffffffffffffffffffff168273ffffffffffffffffffffffffffffffffffffffff160361091b575f6040517f96c6fd1e0000000000000000000000000000000000000000000000000000000081526004016109129190610fcf565b60405180910390fd5b610926825f83610af9565b5050565b5f73ffffffffffffffffffffffffffffffffffffffff168473ffffffffffffffffffffffffffffffffffffffff160361099a575f6040517fe602df050000000000000000000000000000000000000000000000000000000081526004016109919190610fcf565b60405180910390fd5b5f73ffffffffffffffffffffffffffffffffffffffff168373ffffffffffffffffffffffffffffffffffffffff1603610a0a575f6040517f94280d62000000000000000000000000000000000000000000000000000000008152600401610a019190610fcf565b60405180910390fd5b8160015f8673ffffffffffffffffffffffffffffffffffffffff1673ffffffffffffffffffffffffffffffffffffffff1681526020019081526020015f205f8573ffffffffffffffffffffffffffffffffffffffff1673ffffffffffffffffffffffffffffffffffffffff1681526020019081526020015f20819055508015610af3578273ffffffffffffffffffffffffffffffffffffffff168473ffffffffffffffffffffffffffffffffffffffff167f8c5be1e5ebec7d5bd14f71427d1e84f3dd0314c0f7b2291e5b200ac8c7c3b92584604051610aea9190610ecd565b60405180910390a35b50505050565b5f73ffffffffffffffffffffffffffffffffffffffff168373ffffffffffffffffffffffffffffffffffffffff1603610b49578060025f828254610b3d919061114d565b92505081905550610c17565b5f805f8573ffffffffffffffffffffffffffffffffffffffff1673ffffffffffffffffffffffffffffffffffffffff1681526020019081526020015f2054905081811015610bd2578381836040517fe450d38c000000000000000000000000000000000000000000000000000000008152600401610bc9939291906110eb565b60405180910390fd5b8181035f808673ffffffffffffffffffffffffffffffffffffffff1673ffffffffffffffffffffffffffffffffffffffff1681526020019081526020015f2081905550505b5f73ffffffffffffffffffffffffffffffffffffffff168273ffffffffffffffffffffffffffffffffffffffff1603610c5e578060025f8282540392505081905550610ca8565b805f808473ffffffffffffffffffffffffffffffffffffffff1673ffffffffffffffffffffffffffffffffffffffff1681526020019081526020015f205f82825401925050819055505b8173ffffffffffffffffffffffffffffffffffffffff168373ffffffffffffffffffffffffffffffffffffffff167fddf252ad1be2c89b69c2b068fc378daa952ba7f163c4a11628f55a4df523b3ef83604051610d059190610ecd565b60405180910390a3505050565b5f81519050919050565b5f82825260208201905092915050565b5f5b83811015610d49578082015181840152602081019050610d2e565b5f8484015250505050565b5f601f19601f8301169050919050565b5f610d6e82610d12565b610d788185610d1c565b9350610d88818560208601610d2c565b610d9181610d54565b840191505092915050565b5f6020820190508181035f830152610db48184610d64565b905092915050565b5f80fd5b5f73ffffffffffffffffffffffffffffffffffffffff82169050919050565b5f610de982610dc0565b9050919050565b610df981610ddf565b8114610e03575f80fd5b50565b5f81359050610e1481610df0565b92915050565b5f819050919050565b610e2c81610e1a565b8114610e36575f80fd5b50565b5f81359050610e4781610e23565b92915050565b5f8060408385031215610e6357610e62610dbc565b5b5f610e7085828601610e06565b9250506020610e8185828601610e39565b9150509250929050565b5f8115159050919050565b610e9f81610e8b565b82525050565b5f602082019050610eb85f830184610e96565b92915050565b610ec781610e1a565b82525050565b5f602082019050610ee05f830184610ebe565b92915050565b5f805f60608486031215610efd57610efc610dbc565b5b5f610f0a86828701610e06565b9350506020610f1b86828701610e06565b9250506040610f2c86828701610e39565b9150509250925092565b5f60ff82169050919050565b610f4b81610f36565b82525050565b5f602082019050610f645f830184610f42565b92915050565b5f60208284031215610f7f57610f7e610dbc565b5b5f610f8c84828501610e39565b91505092915050565b5f60208284031215610faa57610fa9610dbc565b5b5f610fb784828501610e06565b91505092915050565b610fc981610ddf565b82525050565b5f602082019050610fe25f830184610fc0565b92915050565b5f8060408385031215610ffe57610ffd610dbc565b5b5f61100b85828601610e06565b925050602061101c85828601610e06565b9150509250929050565b7f4e487b71000000000000000000000000000000000000000000000000000000005f52602260045260245ffd5b5f600282049050600182168061106a57607f821691505b60208210810361107d5761107c611026565b5b50919050565b7f4f6e6c7920746865206f776e65722063616e206d696e7420746f6b656e7300005f82015250565b5f6110b7601e83610d1c565b91506110c282611083565b602082019050919050565b5f6020820190508181035f8301526110e4816110ab565b9050919050565b5f6060820190506110fe5f830186610fc0565b61110b6020830185610ebe565b6111186040830184610ebe565b949350505050565b7f4e487b71000000000000000000000000000000000000000000000000000000005f52601160045260245ffd5b5f61115782610e1a565b915061116283610e1a565b925082820190508082111561117a57611179611120565b5b9291505056fea2646970667358221220f513cda9a4b76bfd57b9e6edfc720e8a94d5456e3e6fd9db7225bcb43640cf2264736f6c63430008140033",
  "immutableReferences": {},
  "source": "// SPDX-License-Identifier: MIT\npragma solidity ^0.8.19;\n\nimport \"@openzeppelin/contracts/token/ERC20/ERC20.sol\";\n\ncontract JIDEToken is ERC20 {\n\taddress public owner;\n\tstring public constant token_name = 'Jide Ethereum Token';\n  string public constant toeken_symbol = 'JET';\n // uint8 public constant decimals = 2;\n // uint constant initial_supply = 2100000000;\n\n\tconstructor(uint256 initialSupply) ERC20(token_name, toeken_symbol) {\n\t\towner = msg.sender;\n\t\t// https://github.com/OpenZeppelin/openzeppelin-contracts/blob/6edb6dd1ca43d05a762d84c688116b3327f5e490/contracts/token/ERC20/ERC20.sol#L251-L261\n    // increases `msg.sender`'s balance, total supply, and emits the `Transfer` event\n\t\t_mint(msg.sender, initialSupply);\n\t}\n\n\tmodifier onlyOwner() {\n    // if (msg.sender == owner) _;\n\t\trequire(msg.sender == owner, \"Only the owner can mint tokens\");\n\t\t_;\n  }\n\n\tfunction mint(address to, uint256 amount) public onlyOwner {\n\t\t_mint(to, amount);\n\t}\n\n\tfunction burn(uint256 amount) public {\n\t\t_burn(msg.sender, amount);\n\t}\n}\n\n\n// Explanation:\n// ERC20: The contract imports the ERC-20 implementation from OpenZeppelin.\n// owner: The address that deploys the contract becomes the owner.\n// _mint: Initially mints tokens to the owner on deployment and allows the owner to mint additional tokens.\n// burn: Any token holder can burn their tokens if needed.\n",
  "sourcePath": "/home/jide/Desktop/JIDEToken/contracts/JIDEToken.sol",
  "compiler": {
    "name": "solc",
    "version": "0.8.20+commit.a1b79de6.Emscripten.clang"
  },
  "schemaVersion": "3.4.16",
  "updatedAt": "2024-09-14T20:30:21.085Z",
  "networkType": "ethereum",
  "devdoc": {
    "errors": {
      "ERC20InsufficientAllowance(address,uint256,uint256)": [
        {
          "details": "Indicates a failure with the `spender`s `allowance`. Used in transfers.",
          "params": {
            "allowance": "Amount of tokens a `spender` is allowed to operate with.",
            "needed": "Minimum amount required to perform a transfer.",
            "spender": "Address that may be allowed to operate on tokens without being their owner."
          }
        }
      ],
      "ERC20InsufficientBalance(address,uint256,uint256)": [
        {
          "details": "Indicates an error related to the current `balance` of a `sender`. Used in transfers.",
          "params": {
            "balance": "Current balance for the interacting account.",
            "needed": "Minimum amount required to perform a transfer.",
            "sender": "Address whose tokens are being transferred."
          }
        }
      ],
      "ERC20InvalidApprover(address)": [
        {
          "details": "Indicates a failure with the `approver` of a token to be approved. Used in approvals.",
          "params": {
            "approver": "Address initiating an approval operation."
          }
        }
      ],
      "ERC20InvalidReceiver(address)": [
        {
          "details": "Indicates a failure with the token `receiver`. Used in transfers.",
          "params": {
            "receiver": "Address to which tokens are being transferred."
          }
        }
      ],
      "ERC20InvalidSender(address)": [
        {
          "details": "Indicates a failure with the token `sender`. Used in transfers.",
          "params": {
            "sender": "Address whose tokens are being transferred."
          }
        }
      ],
      "ERC20InvalidSpender(address)": [
        {
          "details": "Indicates a failure with the `spender` to be approved. Used in approvals.",
          "params": {
            "spender": "Address that may be allowed to operate on tokens without being their owner."
          }
        }
      ]
    },
    "events": {
      "Approval(address,address,uint256)": {
        "details": "Emitted when the allowance of a `spender` for an `owner` is set by a call to {approve}. `value` is the new allowance."
      },
      "Transfer(address,address,uint256)": {
        "details": "Emitted when `value` tokens are moved from one account (`from`) to another (`to`). Note that `value` may be zero."
      }
    },
    "kind": "dev",
    "methods": {
      "allowance(address,address)": {
        "details": "See {IERC20-allowance}."
      },
      "approve(address,uint256)": {
        "details": "See {IERC20-approve}. NOTE: If `value` is the maximum `uint256`, the allowance is not updated on `transferFrom`. This is semantically equivalent to an infinite approval. Requirements: - `spender` cannot be the zero address."
      },
      "balanceOf(address)": {
        "details": "See {IERC20-balanceOf}."
      },
      "decimals()": {
        "details": "Returns the number of decimals used to get its user representation. For example, if `decimals` equals `2`, a balance of `505` tokens should be displayed to a user as `5.05` (`505 / 10 ** 2`). Tokens usually opt for a value of 18, imitating the relationship between Ether and Wei. This is the default value returned by this function, unless it's overridden. NOTE: This information is only used for _display_ purposes: it in no way affects any of the arithmetic of the contract, including {IERC20-balanceOf} and {IERC20-transfer}."
      },
      "name()": {
        "details": "Returns the name of the token."
      },
      "symbol()": {
        "details": "Returns the symbol of the token, usually a shorter version of the name."
      },
      "totalSupply()": {
        "details": "See {IERC20-totalSupply}."
      },
      "transfer(address,uint256)": {
        "details": "See {IERC20-transfer}. Requirements: - `to` cannot be the zero address. - the caller must have a balance of at least `value`."
      },
      "transferFrom(address,address,uint256)": {
        "details": "See {IERC20-transferFrom}. Emits an {Approval} event indicating the updated allowance. This is not required by the EIP. See the note at the beginning of {ERC20}. NOTE: Does not update the allowance if the current allowance is the maximum `uint256`. Requirements: - `from` and `to` cannot be the zero address. - `from` must have a balance of at least `value`. - the caller must have allowance for ``from``'s tokens of at least `value`."
      }
    },
    "version": 1
  },
  "userdoc": {
    "kind": "user",
    "methods": {},
    "version": 1
  }
}